:03000000020408EF
:0C040800787FE4F6D8FD75815D02044F9A
:100691003F065B4F666D7D077F6F7FBFDFEFF7FB27
:0206A100FDFE5C
:1005820008480000000000000000204008000000B1
:100592000000000000000000000000000000000059
:1005A2000000000000000000000000000000000049
:1005B2000000000000000000000000000000000039
:0D05C200000000000000000000000000002C
:05061D00FF7B3FE4FD3E
:100622008D588B591206121205D0C3E5599558FD03
:10063200E49400CD2401CD3400FC120494E5582D3D
:02064200FF2295
:10064400C2A2E55790069193F5807FF47E011206CD
:0C06540060D2A2E55693F5807FF47E0191
:0B066000EF1FAC0670011E4C70F6226C
:10066B00C2B6C2B5E4FEEFC4131313540124FF92B8
:10067B00B4EF25E0FFD2B60000C2B60EBE08E7D23B
:05068B00B50000C2B53E
:010690002247
:10051F00E4F55875900FE590640F60547FE87E0303
:10052F00120660E590640F604775900FAF90EF244F
:10053F00F5601024FE601114601324077012E4F5A7
:10054F0058800D755801800875580280037558033F
:10055F007590F0AF90EF2430600C24F0600C2430D5
:10056F00700E7404800674088002740C2558F558B8
:02057F00AF5873
:010581002257
:06035A008F58AB05AA0458
:10036000E558B4041874F82BFB74FF3AC364809406
:1003700080400302040574402BFB020405E5586429
:10038000097033EB4A70047B07807A7C007D08AFEC
:1003900003AE021204948F59EB1B70011A7C007D8E
:1003A00008AF03AE02120494EF65597001EE605578
:1003B00074082BFB804FE558B4061874082BFBE437
:1003C0003AFAD3EB943FEA64809480403874C02BAF
:1003D000FB8032E5586401702AFC7D08AF03AE0251
:1003E0001204948F590BBB00010A7C007D08AF03F7
:1003F000AE02120494EF65597001EE600874F82B98
:07040000FB80027BFFAF034C
:0104070022D2
:1000030074FFF550F551E4F552F553F554F555F5F4
:1000130056F55720B1647FE87E0312066020B15A7B
:100023007554FE8554A07F887E13120660E4F55252
:10003300E55425E0F554F5A07F887E13120660058C
:1000430052E552C3940440E820B12FE55115517095
:10005300021550E5545480F553C41313135401F59A
:1000630053E55425E0F5545354FEE5534254855467
:10007300A07F887E1312066080CE20B096E551F4EF
:100083007003E550F4608C7FE87E0312066020B0B5
:100093008275A0FFE5511551AE5070021550FF7BDC
:1000A30003E4FD1206228F54E55414600F1460110B
:1000B30014601324037012755406800D7554018067
:1000C300087554048003755409E5511551AE5070F9
:1000D30002155012061D8F52E5511551AE50703264
:1000E3001550802EE5526555601EE5555407FFE512
:1000F3005254076F6012E555131313541FFFE55253
:10010300131313541FB50711E5511551AE50700267
:10011300155012061D8F5580CB855208755601E583
:1001230056F4F5A0E4F5577F01E5525407F8EF08BC
:10013300800123D8FDFFE552131313541F2448F8FD
:10014300A6077F01E5555407F8EF08800123D8FD82
:10015300FFE555131313541F2448F8A60712051F70
:100163008F53E556B4011AE5536401603DE55364CA
:10017300046037E55364066031E5536409702E80EB
:1001830029E553B40105E554B4091FE553B4040547
:10019300E554B40615E553B40605E554B4040BE57C
:1001A30053B40909E55464016003855354E508FD1C
:1001B3007C00AF5412035A8F53E5577022755201D6
:1001C300E552C39556500E74082552F8E66508604B
:1001D30004055280EBE552C395565003755701E56C
:1001E3005764017028E55675F00A8485F057E55683
:1001F30075F00A84F556C2A3C2A412064420B3FACA
:100203007FE87E0312066020B3F07F0022E553658A
:10021300556024E55614F552E552D3940040127408
:10022300072552F8E6FF74082552F8A607155280F1
:10023300E78553080202C00556E556F4F5A0E556D6
:1002430014F552E552D39400401274072552F8E690
:10025300FF74082552F8A607155280E7855308E571
:100263005664406030E5511551AE5070021550127E
:10027300061D8F55E4F552E552C39556500E74088A
:100283002552F8E665556004055280EBE552C395A7
:100293005640D28028E55675F00A8485F057E55616
:1002A30075F00A84F556C2A3C2A412064420B3FA19
:1002B3007FE87E0312066020B3F07F0022E4F5524C
:1002C30074482552F8E4F60552E552B408F2E4F511
:1002D30052E552C39556502874082552F8E6FF1389
:1002E3001313541F2448F8C000E6FEEF5407F87FA9
:1002F30001EF08800123D8FD4ED000F6055280D1CE
:10030300E555131313541F2448F8C000E6FE7F017C
:10031300E5555407F8EF08800123D8FD4ED000F6C9
:10032300E4F552E55290069B93F58074482552F804
:10033300E6FF12066B7F647E001206607580FFE4A1
:10034300FF12066B0552E552C3940840D67FD07E58
:0703530007120660020160C1
:10041400020003E493A3F8E493A34003F68001F2FB
:1004240008DFF48029E493A3F85407240CC8C333E9
:10043400C4540F4420C8834004F456800146F6DFB8
:10044400E4800B0102040810204080900582E47EC1
:10045400019360BCA3FF543F30E509541FFEE493AD
:10046400A360010ECF54C025E060A840B8E493A374
:10047400FAE493A3F8E493A3C8C582C8CAC583CA9F
:10048400F0A3C8C582C8CAC583CADFE9DEE780BE57
:0105CF00002B
:10049400C2D5EC30E709B2D5E4C39DFDE49CFCEE83
:1004A40030E715B2D5E4C39FFFE49EFE1204CAC32D
:1004B400E49DFDE49CFC80031204CA30D507C3E428
:0604C4009FFFE49EFE22F2
:1005D000AC5AAD5BAE5CAF5D7810EC4D4E4F700425
:1005E0007CA57DA5C3EC13FCED13FDEE13FEEF130C
:1005F000FF5010EC64CCFCED644CFDEE644EFEEF5D
:1006000064CEFFD8DF8C5A8D5B8E5C8F5DEE547F9D
:0D061000FE228E5A8F5B74A5F55CF55D220D
:1004CA00BC000BBE0029EF8DF084FFADF022E4CC16
:1004DA00F875F008EF2FFFEE33FEEC33FCEE9DECDF
:1004EA00984005FCEE9DFE0FD5F0E9E4CEFD22ED25
:1004FA00F8F5F0EE8420D21CFEADF075F008EF2F6F
:10050A00FFED33FD4007985006D5F0F222C398FD5F
:05051A000FD5F0EA22FC
:00000001FF
